:100000000C9413180C9444180C9444180C94441831
:100010000C9444180C9444180C9444180C944418F0
:100020000C9444180C94F7210C94F7210C94F721AC
:100030000C9444180C94E2D20C9444180C94441878
:100040000C9444180C9438250C9444180C944418BF
:100050000C9444180C9444180C9443230C94AD2134
:100060000C9444180C9408900C94B5900C9444187B
:100070000C9444180C9444180C9444180C94441890
:100080000C9444180C9444180C9444180C94441880
:100090000C9444180C9444180C9444180C94441870
:1000A0000C9444180C9444180C9444180C94441860
:1000B0000C9444180C9444180C9444180C94441850
:1000C0000C9444180C9444180C9444180C94441840
:1000D0000C9444180C9444180C94BCAF0C947DAF51
:1000E0000C944418084AD73B3BCE016E84BCBFFD3C
:1000F000C12F3D6C74319ABD56833DDA3D00C77FF8
:1001000011BED9E4BB4C3E916BAAAABE0000008090
:100110003F05A84CCDB2D44EB93836A9020C50B91F
:10012000918688083CA6AAAA2ABE000000803F004B
:100130004E414E494E495459494E46CDCCCC3D0ACC
:10014000D7233C17B7D13877CC2B329595E6241FAF
:10015000B14F0A000020410000C84200401C462068
:10016000BCBE4CCA1B0E5AAEC59D741000C902100D
:10017000012C014001220170011801B0010E01F0B3
:100180000104015002FA00B002F0003003E600D092
:1001900003DC009004D2007005C800A006BE000079
:1001A00008B400B009AA00D00BA000600E96006051
:1001B000118C000015820020197800C01D6E00A06F
:1001C000226400B0275A00902C500000314600E015
:1001D000343C0010383200903A2800603C1E00A0E9
:1001E0003D1400803E0A00203F00004534004533A6
:1001F000004532004531004530005A320059320086
:100200005832005A0059005800627573793A2070CC
:10021000617573656420666F7220696E7075740A0B
:1002200000627573793A2070617573656420666F3A
:100230007220757365720A00627573793A20707264
:100240006F63657373696E670A004A3135004B4905
:100250004C4C20636175736564206279204B494C76
:100260004C20627574746F6E2F70696E0A004B4972
:100270004C4C2063617573656420627920746F6FE4
:10028000206D75636820696E61637469766520749A
:10029000696D65202D2063757272656E7420636FC1
:1002A0006D6D616E643A200020647269766572201B
:1002B00063757272656E743A200020737465616CA8
:1002C000746843686F70206D617820737065656431
:1002D0003A20000000A0C000000000000000000064
:1002E00000484200004842000080400000000057E3
:1002F00061726E696E673A20486F6D696E67204261
:10030000756D702044697669736F72203C20310AE4
:10031000000202040000A0400000A04000000040D5
:1003200000005C430000574300004D43FFFFFF48BF
:100330006F74656E6420746F6F20636F6C640A0065
:100340007C3C3E5E2B3D3F2F5B5D3B2C2A225C00BC
:100350004572726F722077726974696E6720746F6C
:1003600020454550524F4D210A00454550524F4DB2
:10037000206461746173697A65206572726F722E90
:100380000A00290A002062797465733B2063726356
:10039000200053657474696E67732053746F7265BF
:1003A00064202800290A002062797465733B206369
:1003B000726320002073746F7265642073657474B7
:1003C000696E67732072657472696576656420284A
:1003D00000202863616C63756C6174656429210A6F
:1003E0000020213D2000454550524F4D20435243AF
:1003F000206D69736D61746368202D202873746F9C
:100400007265642920002053697A653A2000496E9C
:100410006465783A2000204D61726C696E3D5635F6
:1004200035290A0028454550524F4D3D004545505D
:10043000524F4D2076657273696F6E206D69736DD2
:1004400061746368200048617264636F646564204E
:1004500044656661756C742053657474696E677366
:10046000204C6F616465640A00B80B0000D007007F
:10047000003C000000102700000000FA430000FAD2
:10048000430000C040000070420000A0420000A0F5
:10049000420000C84385EBC34320204D393036006D
:1004A00020204D3931330020286D6D290020204D4A
:1004B00036303320002055004C0046696C616D6574
:1004C0006E74206C6F61642F756E6C6F6164206C4C
:1004D000656E677468733A0A0020204D3930302009
:1004E0004B004C696E65617220416476616E636594
:1004F0003A0A00205430204500205A00204931009B
:10050000205A0020590020580048796272696420FE
:100510005468726573686F6C643A0A002054302026
:100520004500205A0020493100205A00205900205F
:1005300058005374657070657220647269766572D4
:100540002063757272656E743A0A00204400204977
:100550000020204D3330342050002044002049003A
:1005600020204D33303120500050494420736574B1
:1005700074696E67733A0A00205A0020204D36369F
:100580003600456E6473746F702061646A757374AD
:100590006D656E743A0A00205A00205900202047E9
:1005A0003239205333205800205A0020204D343255
:1005B000302053004D65736820426564204C657699
:1005C000656C696E673A0A00205A002059002020A5
:1005D0004D323036205800486F6D65206F66667367
:1005E00065743A0A00204500205A0020590020581E
:1005F0000020540020530020204D3230352051007F
:1006000020453C6D61785F655F6A65726B3E0020D6
:10061000583C6D61785F785F6A65726B3E20593C2B
:100620006D61785F795F6A65726B3E205A3C6D61DF
:10063000785F7A5F6A65726B3E00416476616E63D3
:1006400065643A20513C6D696E5F7365676D656ED8
:10065000745F74696D655F75733E20533C6D696EA0
:100660005F66656564726174653E20543C6D696EB9
:100670005F74726176656C5F6665656472617465EE
:100680003E0020540020520020204D3230342050B3
:1006900000416363656C65726174696F6E202875D3
:1006A0006E6974732F7332293A20503C7072696EF0
:1006B000745F616363656C3E20523C726574726165
:1006C00063745F616363656C3E20543C7472617651
:1006D000656C5F616363656C3E0A00204500205ACB
:1006E0000020590020204D3230312058004D6178D3
:1006F000696D756D20416363656C65726174696FC6
:100700006E2028756E6974732F7332293A0A00209F
:100710004500205A0020590020204D323033205807
:10072000004D6178696D756D2066656564726174F0
:1007300065732028756E6974732F73293A0A002037
:100740004500205A0020590020204D393220580001
:1007500053746570732070657220756E69743A0AFF
:100760000020204D3230302044300A0020204D320D
:1007700030302044002044697361626C65640A0073
:1007800046696C616D656E742073657474696E671B
:10079000733A002020473231202020203B00545261
:1007A00049474745524544006F70656E003A200046
:1007B0007A325F6D696E007A5F6D696E00795F6D88
:1007C000696E00785F6D696E005265706F72746952
:1007D0006E6720656E6473746F70207374617475D6
:1007E000730A000A4D6561737572656420706F69E4
:1007F0006E74733A0A005A206F66667365743A2005
:10080000004E756D20582C593A20352C350A0000C1
:100810000000010000000100008000555555000057
:1008200000400033333300AAAA2A00499224000072
:10083000002000C7711C0099991900D14517005577
:100840005515003BB113002449120011111100008D
:100850000010000F0F0F00E3380E0043790D00CC9D
:10086000CC0C00C3300C00E8A20B0064210B00AAE2
:10087000AA0A00703D0A009DD80900427B09009237
:10088000240900DCD3080088880800104208000012
:10089000000800F0C1070087870700755007007146
:1008A0001C07003EEB0600A1BC060069900600662E
:1008B000660600703E06006118060017F405007415
:1008C000D105005BB00500B29005006272050055CD
:1008D00055050078390500B81E0500050505004ED0
:1008E000EC040087D40400A1BD040090A7040049D3
:1008F000920400C17D0400EE690400C75604004460
:100900004404005C3204000821040041100400008B
:100910000004003FF00300F8E0030026D20300C308
:10092000C30300CCB503003AA803000A9B030038B8
:100930008E0300C08103009F750300D0690300503F
:100940005E03001D53030034480300913D03003350
:1009500033030016290300381F03009715030030E6
:100960000C0300030303000BFA020049F10200BA72
:10097000E802005CE002002DD802002DD0020059F0
:10098000C80200B0C0020031B90200DAB10200AA08
:10099000AA0200A0A30200BC9C0200FA9502005C1F
:1009A0008F0200DF88020082820200457C0200275D
:1009B00076020027700200436A02007C640200D0C5
:1009C0005E02003F590200C853020020746F6F207E
:1009D0006C6F6E6720657874727573696F6E2070C6
:1009E000726576656E7465640A0020636F6C6420BE
:1009F000657874727573696F6E2070726576656E56
:100A00007465640A00FFFDFCFAF8F6F4F2F0EEEC0F
:100A1000EAE9E7E5E3E1E0DEDCDAD9D7D5D4D2D004
:100A2000CFCDCBCAC8C7C5C3C2C0BFBDBCBAB9B79A
:100A3000B6B4B3B2B0AFADACAAA9A8A6A5A4A2A102
:100A4000A09E9D9C9A99989795949392908F8E8D45
:100A50008B8A8988878684838281807F7E7D7B7A6A
:100A6000797877767574737271706F6E6D6C6B6A6E
:100A7000696867666564636261605F5E5D5C5B5A5E
:100A80005958585756555453525150504F4E4D4C3B
:100A90004B4A4A4948474646454443424241403F03
:100AA0003E3E3D3C3B3B3A393838373635353433BA
:100AB00032323130302F2E2E2D2C2B2B2A29292863
:100AC000272726252524232322212120201F1E1EFF
:100AD0001D1C1C1B1B1A191918181716161515148E
:100AE000131312121111100F0F0E0E0D0D0C0C0B13
:100AF0000A0A09090808070706060505040403038E
:100B0000020201000024F4D43050C38E20C2A2405F
:100B100017828B7011127A910D816CD90AA861E14C
:100B200008C7586607615143061E4B5D05C145A7BE
:100B3000041A411104093D9803713931034036DB31
:100B40000265339102D4305402802E1D02632CEED4
:100B500001752AC501B028A001102781018F2564E5
:100B6000012B244B01E0223401AC211F018D200D0B
:100B700001801FFC00841EED00971DDF00B81CD211
:100B800000E61BC600201BBC00641AB200B219A804
:100B9000000A19A0006A189900D117910040178B1C
:100BA00000B516840031167E00B31579003A15732E
:100BB00000C7146F0058146A00EE136600881363B0
:100BC0000025135E00C7125B006C1257001512540B
:100BD00000C111510070114F0021114B00D6104976
:100BE000008D1047004610440002104200C00F4024
:100BF00000800F3E00420F3C00060F3B00CB0E383A
:100C000000930E37005C0E3500270E3400F30D32D2
:100C100000C10D3100900D3000600D2E00320D2D01
:100C200000050D2C00D90C2B00AE0C2900850C29D9
:100C3000005C0C2700350C27000E0C2600E80B2466
:100C400000C40B2400A00B23007D0B23005A0B21B2
:100C500000390B2100180B2000F80A1F00D90A1ECA
:100C600000BB0A1E009D0A1D00800A1D00630A1CAD
:100C700000470A1B002C0A1B00110A1A00F7091A68
:100C800000DD091900C4091900AB09190092091700
:100C9000007B091800630917004C09160036091675
:100CA00000200916000A091500F5081500E00814CF
:100CB00000CC081400B8081400A40814009008130D
:100CC000007D0812006B0813005808120046081235
:100CD0000034081100230811001208110001081146
:100CE00000F0071000E0071000D0071000C0071048
:100CF00000B0070F00A107100091070E0083070F37
:100D00000074070F0065070E0057070E0049070E15
:100D1000003B070D002E070E0020070D0013070DE6
:100D20000006070D00F9060C00ED060D00E0060CAC
:100D300000D4060C00C8060C00BC060C00B0060C63
:100D400000A4060B0099060C008D060B0082060B12
:100D50000077060B006C060B0061060A0057060BB5
:100D6000004C060A0042060A0038060A002E060A4F
:100D70000024060A001A060A001006090007060ADF
:100D800000FD050900F4050900EB050900E205096D
:100D900000D9050900D0050900C7050900BE0509ED
:100DA00000B5050800AD050800A50509009C05086B
:100DB00000940508008C050800840508007C0508DF
:100DC00000740508006C050700650508005D05074F
:100DD00000560508004E05070047050700400508B6
:100DE0000038050700310507002A0507002305071D
:100DF000001C050600160507000F0507000805067C
:100E00000002050700FB040600F5040700EE0406D7
:100E100000E8040600E2040700DB040600D504062F
:100E200000CF040600C9040600C3040600BD040682
:100E300000B7040600B1040500AC040600A60406D1
:100E400000A00405009B040600950405009004061C
:100E5000008A04050085040500800406007A040564
:100E60000075040500700405006B040500660405A8
:100E700000610405005C04050057040500520405E8
:100E8000004D04050048040500430405003E040429
:100E9000003A04050035040500300404002C040564
:100EA0000027040400230405001E0404001A04049F
:100EB0000016040500110404000D040400090405D3
:100EC000000404040000040400FC030400F803040C
:100ED00000F4030400F0030400EC030400E803043E
:100EE00000E4030400E0030400DC030400D803046E
:100EF00000D4030400D0030400CC030400C803039F
:100F000000C503030024F404D9201BC40C5C0E9814
:100F100004C4095F0265077101F405F900FB04B31D
:100F20000048048700C103690058035500030345C6
:100F300000BE023A008402310053022A0029022531
:100F40000004022000E4011C00C8011900AF0117D1
:100F50000098011400840113007101100061011058
:100F60000051010E0043010D0036010B002B010B57
:100F70000020010B00150109000C01090003010804
:100F800000FB000800F3000800EB000700E4000687
:100F900000DE000600D8000600D2000600CC0005E6
:100FA00000C7000500C2000500BD000400B9000430
:100FB00000B5000400B1000400AD000400A9000465
:100FC00000A5000300A20003009F0004009B000393
:100FD00000980003009500020093000300900003B6
:100FE000008D0002008B00030088000200860002D2
:100FF0000084000300810002007F0002007D0002E7
:10100000007B0002007900020077000100760002F8
:10101000007400020072000100710002006F000203
:10102000006D0001006C0002006A0001006900020E
:101030000067000100660001006500010064000215
:10104000006200010061000100600001005F000219
:10105000005D0001005C0001005B0001005A00011E
:10106000005900010058000100570001005600011E
:10107000005500010054000100530000005300011E
:10108000005200010051000100500001004F00011A
:10109000004E0000004E0001004D0001004C000118
:1010A000004B0000004B0001004A00010049000114
:1010B0000048000000480001004700010046000011
:1010C0000046000100450000004500010044000109
:1010D0000043000000430001004200000042000104
:1010E000004100000041000100400001003F0000FD
:1010F000003F0001003E0000003E0001003D0000F6
:10110000003D0001003C0000003C0000003C0001EC
:10111000003B0000003B0001003A0000003A0001E3
:1011200000390000003900010038000000380000DC
:1011300000380001003700000037000100360000D1
:1011400000360000003600010035000000350000C8
:1011500000350001003400000034000000340001BC
:1011600000330000003300000033000100320000B3
:1011700000320000003200010031000000310000A8
:10118000003100010030000000300000003000019C
:10119000002F0000002F0000002F0000002F000192
:1011A000002E0000002E0000002E0001002D000087
:1011B000002D0000002D0000002D0001002C00007B
:1011C000002C0000002C0000002C0001002B00006F
:1011D000002B0000002B0000002B0001002A000063
:1011E000002A0000002A0000002A00010029000057
:1011F000002900000029000000290000002900014A
:10120000002800000028000000280000002800003E
:101210000028000100270000002700000027000030
:101220000027000000270001002600000026000023
:101230000026000000260000002600010025000016
:10124000002500000025000000250000002500000A
:1012500000250001002400000024000000240000FC
:1012600000240000002400010023000000230000EF
:1012700000230000002300000023000000230000E2
:1012800000230001002200000022000000220000D4
:1012900000220000002200000022000100210000C6
:1012A00000210000002100000021000000210000BA
:1012B00000210000002100010020000000200000AB
:1012C000002000000020000000200000002000009E
:1012D0000020000000200001001F0000001F00008F
:1012E000001F0000001F0000001F0000001F000082
:1012F000001F0001001E0000001E0000001E000074
:10130000001E000000232C0000B822000056180028
:10131000003A0F0000B8080000B10400007102009C
:10132000003E0100002CFFFFFFFFFF000101010153
:10133000016265640A002C2073797374656D2073F3
:10134000746F7070656421204865617465725F49CF
:10135000443A20004265642068656174696E6720C4
:101360006661696C65640048656174696E672066D2
:1013700061696C65640045312048656174696E6718
:10138000206661696C65640048656174696E6720F8
:101390006661696C65640070012C0190012701B0E1
:1013A000012201C0011D01F00118011002130130DA
:1013B000020E016002090190020401C002FF000058
:1013C00003FA004003F5008003F000D003EB002097
:1013D00004E6007004E100E004DC004005D700C032
:1013E00005D2004006CD00D006C8008007C30030FB
:1013F00008BE00F008B900C009B400B00AAF00B0E0
:101400000BAA00D00CA500000EA000500F9B00C03E
:101410001096005012910000148C00C0158700B087
:10142000178200B0197D00D01B7800001E730040A9
:10143000206E0090226900F024640040275F009035
:10144000295A00E02B5500102E500020304B001080
:10145000324600E033410090353C001037370070D1
:10146000383200A0392D00B03A2800A03B2300609C
:101470003C1E00103D1900903D1400103E0F0070FE
:101480003E0A00C03E0500003F0000403FFBFF80D9
:101490003FF6FFC03FF1FF453120544845524D41D2
:1014A0004C2052554E415741590042454420544822
:1014B00045524D414C2052554E41574159005468B8
:1014C00065726D616C2052756E617761790045318E
:1014D000204572723A204D415854454D5000457296
:1014E000723A204D415854454D5020424544004DDC
:1014F000415854454D502074726967676572656440
:10150000004531204572723A204D494E54454D50A8
:10151000004572723A204D494E54454D5020424587
:1015200044004D494E54454D5020747269676765BB
:10153000726564004D383420582059205A204500E7
:10154000202F002042403A0020403A0007020502C6
:1015500003020002FD01FA01F701F401F101EE01BD
:10156000EB01434F4D4D554E49434154494F4E00B9
:1015700044525952554E004552524F525300494E13
:10158000464F004543484F00696E206D6F76655F9A
:10159000746F282920666565645F76616C756520C7
:1015A000666F722058593A002C2065793D00292039
:1015B0002D3E202865783D002C2073793D00204386
:1015C0006F6E6E656374696E6720776974682076E4
:1015D0006572746963616C206C696E65202873782C
:1015E0003D002C2065793D0029202D3E202865787E
:1015F0003D002C2073793D0020436F6E6E6563744F
:10160000696E67207769746820686F72697A6F6E97
:1016100074616C206C696E65202873783D003F53BF
:10162000706563696669656420582C5920636F6F23
:101630007264696E617465206F7574206F662062D4
:101640006F756E64732E0A003F28522965706561BC
:10165000742076616C7565206E6F7420706C617596
:101660007369626C653B206D7573742062652061DF
:1016700074206C6561737420312E0A003F28522952
:101680006570656174206D75737420626520737078
:1016900065636966696564207768656E206E6F743E
:1016A000207573696E6720616E204C43442E0A00DA
:1016B0003F537065636966696564206E6F7A7A6C02
:1016C000652074656D7065726174757265206E6FEA
:1016D0007420706C61757369626C652E0A003F53EB
:1016E00070656369666965642066696C616D656EC5
:1016F000742073697A65206E6F7420706C617573E5
:1017000069626C652E0A003F53706563696669659E
:1017100064207072696D65206C656E677468206EF8
:101720006F7420706C61757369626C652E0A003F7E
:101730005072696D65206C656E677468206D757395
:1017400074206265207370656369666965642077DB
:1017500068656E206E6F74207573696E6720616EA8
:10176000204C43442E0A003F5370656369666965E7
:1017700064206E6F7A7A6C652073697A65206E6F6B
:101780007420706C61757369626C652E0A003F4944
:101790006E76616C69642052657472616374696FFE
:1017A0006E2F556E72657472616374696F6E20720C
:1017B0006174696F2E204D7573742062652077699E
:1017C0007468696E20356D6D2E0A0020556E726545
:1017D0007472616374696F6E20616D6F756E7420D1
:1017E0006175746F6D61746963616C6C7920736588
:1017F0007420746F20003F556E726574726163745B
:10180000696F6E206C656E677468206D75737420E7
:101810006265207370656369666965642E0A003FBE
:1018200053706563696669656420556E726574728C
:10183000616374696F6E206C656E677468206E6F8B
:101840007420706C61757369626C652E0A003F527A
:10185000657472616374696F6E206C656E6774681D
:10186000206D7573742062652073706563696669A5
:1018700065642E0A003F537065636966696564207C
:1018800052657472616374696F6E206C656E677403
:1018900068206E6F7420706C61757369626C652E60
:1018A0000A003F537065636966696564206C6179FD
:1018B000657220686569676874206E6F7420706C4B
:1018C00061757369626C652E0A003F5370656369C8
:1018D00066696564206265642074656D7065726117
:1018E00074757265206E6F7420706C6175736962B7
:1018F0006C65202834302D31343043292E0A0047BE
:10190000323620636F6D6D616E6420737461727422
:1019100065642E2057616974696E6720666F722056
:101920006865617465722873292E0A002569730041
:1019300025696D20256973002569682025696D205A
:1019400025697300256964202569682025696D2053
:101950002569730025697920256964202569682037
:1019600025696D2025697300656E717565756569FA
:101970006E672022005072696E7465722073746FF6
:10198000707065642064756520746F206572726F75
:1019900072732E2046697820746865206572726FB4
:1019A0007220616E6420757365204D393939207459
:1019B0006F20726573746172742E202854656D7087
:1019C00065726174757265206973207265736574E0
:1019D0002E205365742069742061667465722072CC
:1019E000657374617274696E67290A004E6F2043D3
:1019F0006865636B73756D2077697468206C696EB8
:101A000065206E756D6265722C204C617374204C7C
:101A1000696E653A20004E6F20436865636B73758D
:101A20006D2077697468206C696E65206E756D62D3
:101A300065722C204C617374204C696E653A2000ED
:101A4000636865636B73756D206D69736D61746335
:101A5000682C204C617374204C696E653A20004CF0
:101A6000696E65204E756D626572206973206E6FB8
:101A700074204C617374204C696E65204E756D62E4
:101A800065722B312C204C617374204C696E653A61
:101A900020004D313130004D333100534420726508
:101AA0006164206572726F720A00446F6E65207007
:101AB00072696E74696E672066696C650A002049F8
:101AC0006E76616C696420657874727564657220E5
:101AD000000000A0C000000000000000000000574F
:101AE000430000574300004D43206E6F7420656E25
:101AF00074657265642E0A0044656C6574696F6E66
:101B0000206661696C65642C2046696C653A20002A
:101B100046696C652064656C657465643A00507252
:101B20006F7465637465642050696E0A0046696C61
:101B3000616D656E7420757365643A20005374613D
:101B400074733A20002C204C6F6E67657374206AA2
:101B50006F623A2000546F74616C2074696D653A4D
:101B6000200053746174733A20002C204661696C24
:101B700065643A20002C2046696E69736865643A92
:101B800020005072696E74733A200053746174734C
:101B90003A20004A3036004A3034004A30370020BC
:101BA000573A004A3038004A30390020573A00206E
:101BB0005A3A0020593A0020436F756E7420583A03
:101BC0000020453A00205A3A0020593A00583A007D
:101BD0003A004361703A00205A0020590058002012
:101BE000204D61783A2000205A00205900580020EA
:101BF000204D696E3A20004F6E20004F66660053FC
:101C00006F667420656E6473746F70733A20004B56
:101C100064200023646566696E652044454641552D
:101C20004C545F004B69200023646566696E652033
:101C300044454641554C545F004B70200023646579
:101C400066696E652044454641554C545F005049D5
:101C500044204175746F74756E652066696E697392
:101C6000686564212050757420746865206C617308
:101C700074204B702C204B6920616E64204B6420D3
:101C8000636F6E7374616E74732066726F6D206221
:101C9000656C6F7720696E746F20436F6E6669673D
:101CA00075726174696F6E2E680A00504944204154
:101CB00075746F74756E65206661696C656421204A
:101CC00074696D656F75740A00453120544845523A
:101CD0004D414C2052554E415741590042454420F8
:101CE000544845524D414C2052554E4157415900A0
:101CF000546865726D616C2052756E617761790010
:101D000045312048656174696E67206661696C655C
:101D100064004265642068656174696E672066616D
:101D2000696C65640048656174696E672066616905
:101D30006C656400504944204175746F74756E651C
:101D4000206661696C6564212054656D70657261FF
:101D50007475726520746F6F20686967680A002067
:101D60004B643A2000204B693A2000204B703A2007
:101D7000000A20436C617373696320504944200A50
:101D8000002054753A2000204B753A2000206D61E8
:101D9000783A2000206D696E3A200020643A2000D5
:101DA00020626961733A2000504944204175746F84
:101DB00074756E652073746172740A005049442012
:101DC0004175746F74756E65206661696C65642118
:101DD0002054656D706572617475726520746F6FE3
:101DE00020686967680A00504944204175746F741F
:101DF000756E65206661696C6564212042616420AE
:101E00006578747275646572206E756D6265720AAC
:101E1000004F66660A004661646520486569676828
:101E2000742000426564204C6576656C696E67209D
:101E3000004661696C656420746F20656E61626C38
:101E40006520426564204C6576656C696E670A00A2
:101E50004D65736820426564204C6576656C20642E
:101E60006174613A0A004D65736820706F696E7421
:101E70002063616E6E6F74206265207265736F6C93
:101E80007665640A004D34323120696E636F727278
:101E900065637420706172616D657465722075731D
:101EA0006167650A00496E736572742066696C61CA
:101EB0006D656E7420616E642073656E64204D31B3
:101EC00030380A0053656E64204D31303820746F0D
:101ED0002068656174206E6F7A7A6C650A00496EBD
:101EE000736572742066696C616D656E7420616ED5
:101EF0006420707265737320627574746F6E20282D
:101F00006F72204D313038290A004D38383820633F
:101F10006F6F6C646F776E20726F7574696E652079
:101F2000646F6E650A004D383400546172676574E1
:101F3000206E6F7420726561636865642C20717512
:101F40006575656420616E206172630A00556C746A
:101F500072616261736520636F6F6C646F776E206E
:101F6000737461727465640A0047322F47332062CC
:101F7000616420706172616D65746572730A00201E
:101F80006F6620004D424C2047323920706F696ED9
:101F9000742000290A0059206F7574206F66207222
:101FA000616E67652028312D00290A0058206F7561
:101FB00074206F662072616E67652028312D004D98
:101FC0006573682070726F62696E6720646F6E65FA
:101FD0002E0A005374617274206D657368207072EC
:101FE0006F62696E672077697468202247323920F2
:101FF0005331222066697273742E0A004732380A00
:10200000473239205332004D657368206265642081
:102010006C6576656C696E6720686173206E6F20F1
:10202000646174612E0A0053746174653A20005330
:10203000206F7574206F662072616E67652028308E
:102040002D35292E0A004D65736820706F696E74F6
:102050002063616E6E6F74206265207265736F6CB1
:102060007665640A00456E642066696C65206C695B
:1020700073740A00426567696E2066696C65206C3E
:102080006973740A004D31323500286E6F2066691D
:102090006C65290043757272656E742066696C65A3
:1020A0003A20005344207072696E74696E67206232
:1020B00079746520004E6F74205344207072696EED
:1020C00074696E670A005072696E742074696D6578
:1020D0003A20006F6E2E0A006F66662E0A004732A5
:1020E0003620446562756720006F66660083157E42
:1020F0001577157015621544454255473A004D3124
:1021000031332053006F6B00486F74656E64207428
:102110006F6F20636F6C640A002C20002C20005429
:102120004845524D414C5F50524F54454354494FDE
:102130004E004155544F5245504F52545F53445FE7
:1021400053544154555300454D455247454E43590C
:102150005F50415253455200434153455F4C4947FC
:1021600048545F4252494748544E45535300544FD8
:1021700047474C455F4C494748545300534F4654DA
:10218000574152455F504F574552004255494C44C4
:102190005F50455243454E54004C4556454C494EC0
:1021A000475F44415441005A5F50524F42450041FD
:1021B00055544F4C4556454C005052494E545F4A79
:1021C0004F420050524F4752455353004155544FD0
:1021D0005245504F52545F54454D5000564F4C5548
:1021E0004D455452494300454550524F4D005345CB
:1021F0005249414C5F584F4E5F584F464600464942
:10220000524D574152455F4E414D453A4D61726CBA
:10221000696E20312E312E39202847697468756225
:102220002C20646176696472616D69726F29204D3A
:1022300041524C494E2D4149334D5F564552534909
:102240004F4E3A76312E342E3620534F5552434559
:102250005F434F44455F55524C3A68747470733A0B
:102260002F2F6769746875622E636F6D2F646176B6
:10227000696472616D69726F2F4D61726C696E2D48
:102280004149334D2050524F544F434F4C5F5645B8
:102290005253494F4E3A312E30204D414348494E1A
:1022A000455F545950453A416E79637562696320C0
:1022B0006933204D65676120455854525544455255
:1022C0005F434F554E543A3120555549443A636562
:1022D0006465326132662D343161322D34373438E1
:1022E0002D396231322D63353563363266333637F8
:1022F00066660A002F2F2000205400205200416300
:1023000063656C65726174696F6E3A205000574165
:10231000524E494E4721204C6F77205A204A657211
:102320006B206D6179206C65616420746F20756E1F
:1023300077616E746564207061757365732E0A0031
:10234000546F6F206661722066726F6D20726566D1
:102350006572656E636520706F696E740A00204651
:102360006C6F773A20000001363726032BFFFFFF02
:102370003C3D382AFFFFFFFF2E303E12FFFFFFFFDC
:10238000FFFFFF0809FF2C071A1C18FFFFFF084476
:102390000A2C4324221E496E76616C69642065789C
:1023A0007472756465720A0020643A0020693A000C
:1023B00020703A0043290A0061626C656420286D30
:1023C000696E2074656D702000436F6C64206578C1
:1023D00074727564657320617265200020643A0030
:1023E00020693A0020703A004E6F206361736520C7
:1023F0006C696768740A00454550524F4D204F4B39
:102400000A00205A004475616C20456E6473746F35
:10241000702041646A7573746D656E7420286D6DEB
:10242000293A20003F4B2076616C7565206F7574EA
:10243000206F662072616E67652028302D3130294B
:102440002E0A00416476616E6365204B3D00416356
:10245000746976652045787472756465723A2000F7
:10246000496E76616C696420657874727564657212
:102470000A00526573656E643A20006F6B00207429
:102480006F6F206C6F6E6720657874727573696FFB
:102490006E2070726576656E7465640A0020636FE5
:1024A0006C6420657874727573696F6E20707265E4
:1024B00076656E7465640A00000021002400270020
:1024C0002A002D0030003300010100000401070143
:1024D0000A0100000A0B02090C0D0E080703040193
:1024E00000000000000000000000000000000000EC
:1024F00000000000000000000000000000001211B9
:1025000010000000000000000000000000000000BB
:102510000000000000000000024A3135004A31325C
:10252000004A3137002020506C616E6E6572427532
:102530006666657242797465733A2000204672655A
:1025400065204D656D6F72793A2000436F6D70693B
:102550006C65643A204A616E20313220323032306C
:102560000A00207C20417574686F723A20286461EB
:1025700076696472616D69726F20616E6420546166
:10258000706574656E686F62656C290A003230315F
:10259000392D30342D303300204C61737420557048
:1025A00064617465643A200076312E342E360A0058
:1025B0004D61726C696E2D4149334D00312E312EC3
:1025C000390A004D61726C696E0020536F66747732
:1025D0006172652052657365740A002057617463E7
:1025E00068646F672052657365740A002042726FD9
:1025F000776E206F75742052657365740A002045EC
:10260000787465726E616C2052657365740A00504F
:102610006F77657255700A0073746172740A004DA9
:102620003234004D3233202573006175746F256993
:102630002E67006572726F722077726974696E67B7
:1026400020746F2066696C650A00205A3A00205990
:102650003A0020583A00656E6473746F7073206896
:1026600069743A2000446F6E6520736176696E6705
:102670002066696C652E0A004D323900000020008A
:102680002300260029002C002F003200000100004A
:1026900003010601090100002200250028002B008B
:1026A0002E003100340002010000050108010B0179
:1026B00005050505070508080808020202020A0ABE
:1026C00008080404040401010101010101010303DC
:1026D000030303030303040707070C0C0C0C0C0C87
:1026E0000C0C0202020206060606060606060B0B84
:1026F0000B0B0B0B0B0B01021020200808102040C5
:1027000010204080020102010804020101020408B5
:102710001020408080402010080402018004020143
:10272000804020100804020108040201010204088C
:10273000102040800102040810204080556E6B6E0E
:102740006F776E20636F6D6D616E643A2022004971
:102750006E736572742066696C616D656E7420615C
:102760006E6420707265737320627574746F6E206E
:10277000286F72204D313038290A0043616E6E6F28
:102780007420656E746572207375626469723A2094
:10279000004D363030005370656369616C204D65C3
:1027A0006E753A2046696C616D656E744368616E42
:1027B000676520526573756D650A005370656369BE
:1027C000616C204D656E753A2046696C616D656E71
:1027D000744368616E67652050617573650A0047D0
:1027E00039310A4731205A2D302E310A473930000D
:1027F0005370656369616C204D656E753A205A208F
:10280000446F776E20302E310A004739310A473144
:10281000205A2D302E30320A47393000537065630C
:1028200069616C204D656E753A205A20446F776E51
:1028300020302E30320A004739310A4731205A2BD6
:10284000302E30320A473930005370656369616C4D
:10285000204D656E753A205A20557020302E30324A
:102860000A004739310A4731205A2B302E310A47A6
:102870003930005370656369616C204D656E753A3F
:10288000205A20557020302E310A0047323920530B
:1028900032005370656369616C204D656E753A2036
:1028A0004E657874204D65736820506F696E740AA8
:1028B00000473239205331005370656369616C20E1
:1028C0004D656E753A205374617274204D6573685E
:1028D000204C6576656C696E670A004D3134302096
:1028E000533630005370656369616C204D656E75B9
:1028F0003A2050726568656174204265640A004D33
:10290000353032005370656369616C204D656E75BA
:102910003A204C6F61642046572044656661756CAF
:1029200074730A004D353030005370656369616C13
:10293000204D656E753A20536176652045455052AD
:102940004F4D0A004D33303320452D312053363062
:10295000204336205531005370656369616C204D0A
:10296000656E753A204175746F2054756E65204808
:102970006F74626564205069640A004D31303620FE
:10298000533230340A4D3330332045302053323106
:102990003020433135205531005370656369616CD7
:1029A000204D656E753A204175746F2054756E65C3
:1029B00020486F74656E64205049440A004D3130E0
:1029C00038004D313038004D3234004D3234003C47
:1029D0005370656369616C5F4D656E753E003C5375
:1029E00070656369616C5F4D656E753E002F002FE9
:1029F000002F002F2E2E0A002F2E2E002F2E2E00FD
:102A00003C5370656369616C5F4D656E753E0A008D
:102A10003C5370656369616C204D656E753E003C8A
:102A20005370656369616C204D656E753E003C4670
:102A3000696C616D656E744368616E67652052658F
:102A400073756D653E003C46696C616D656E7443DF
:102A500068616E676520526573756D653E003C4622
:102A6000696C616D656E744368616E676520506165
:102A70007573653E003C46696C616D656E744368B4
:102A8000616E67652050617573653E003C4C6F61F7
:102A9000642046572044656661756C74733E003C43
:102AA0004C6F61642046572044656661756C747391
:102AB0003E003C4175746F2054756E6520486F74FC
:102AC000626564205049443E003C4175746F205457
:102AD000756E6520486F74626564205049443E00FD
:102AE0003C4175746F2054756E6520486F74656E37
:102AF00064205049443E003C4175746F2054756E0B
:102B00006520486F74656E64205049443E003C4522
:102B10007869743E003C457869743E003C536176A8
:102B20006520454550524F4D3E003C53617665202F
:102B3000454550524F4D3E003C4E657874204D65E2
:102B4000736820506F696E743E003C4E6578742047
:102B50004D65736820506F696E743E003C5374611C
:102B60007274204D657368204C6576656C696E677C
:102B70003E003C5374617274204D657368204C654F
:102B800076656C696E673E003C507265686561747D
:102B9000206265643E003C50726568656174206225
:102BA00065643E003C5A20446F776E20302E313EE3
:102BB000003C5A20446F776E20302E313E003C5A44
:102BC00020446F776E20302E30323E003C5A204435
:102BD0006F776E20302E30323E003C5A20557020E8
:102BE000302E30323E003C5A20557020302E30328C
:102BF0003E003C5A20557020302E313E003C5A2079
:102C0000557020302E313E0056313136004A333374
:102C100020004D3530300A4D3432302053310A47D0
:102C200031205A313020463234300A473120583072
:102C3000205930204636303030004A3232004A3295
:102C400032004731205A3520463234300A4731208D
:102C500058313930205932302046363030300A472A
:102C600031205A302046323430004731205A352046
:102C7000463234300A473120583139302059313901
:102C8000302046363030300A4731205A3020463224
:102C90003430004731205A3520463234300A47312B
:102CA0002058313930205932302046363030300A01
:102CB0004731205A302046323430004739310A47F4
:102CC00031205A313020463234300A4739300A47F1
:102CD00032380A4732390A473120583230205932C7
:102CE000302046363030300A4731205A30204632C4
:102CF0003430004A3032004A3132004731205A31F4
:102D000030004F4B004731205A31300047393000F6
:102D10004731204525694635303000473120452D63
:102D2000302E314625690047312045302E31462569
:102D300069004731205A2569462569004731205AE4
:102D40002D302E31462569004731205A302E31462C
:102D500025690047312059256946256900473120FA
:102D6000592D302E314625690047312059302E31FA
:102D700046256900473120582569462569004731B5
:102D800020582D302E314625690047312058302EED
:102D9000314625690047393100473238004732381B
:102DA000205A004732382059004732382058004115
:102DB00032305620004731205A3130004A3034003A
:102DC0004A3231004A3230004A3136004A3034004B
:102DD000454E4400464E20004A3032003939393AD7
:102DE000393939004D0048004137562000413656E8
:102DF000202D2D2D004A30320041365620005A3AFF
:102E00002000593A2000583A2000413556004134FC
:102E100056200041335620004132562000413156A1
:102E2000200041305620004D3237004D38340047E5
:102E300039310A473120452D312046313830300AAA
:102E4000473930004A3136004D313235204C32009E
:102E50004A3138004A3134004A3030004A303100BB
:102E60004A3130002066697273740A005A005900B2
:102E70005800486F6D6520004A3233004D323500EE
:102E800047393000473120452D3320463138303026
:102E9000004739310057726974696E6720746F207A
:102EA00066696C653A20006F70656E206661696CBA
:102EB00065642C2046696C653A20006F70656E2051
:102EC0006661696C65642C2046696C653A20004631
:102ED000696C652073656C65637465640A002053D2
:102EE000697A653A200046696C65206F70656E6589
:102EF000643A20002066696C653A2000646F696E50
:102F000067006672657368004E6F772000454E4417
:102F100020535542524F5554494E450A00222070C5
:102F20006F73002220706172656E743A22005355EF
:102F300042524F5554494E452043414C4C207461F8
:102F4000726765743A2200747279696E6720746FD3
:102F50002063616C6C207375622D67636F646520FC
:102F600066696C6573207769746820746F6F206D73
:102F7000616E79206C6576656C732E204D4158200A
:102F80006C6576656C2069733A006F70656E2066BB
:102F900061696C65642C2046696C653A2000436168
:102FA0006E6E6F74206F70656E20737562646972E7
:102FB00020004A3131005072696E74657220686178
:102FC0006C7465642E206B696C6C28292063616CBD
:102FD0006C6564210A0053442063617264206F6B46
:102FE0000A006F70656E526F6F74206661696C6560
:102FF000640A00766F6C756D652E696E6974206663
:1030000061696C65640A004572726F723A005344DC
:1030100020696E6974206661696C0A006563686F77
:103020003A0028F383F111241FBECFEFD1E2DEBFB7
:10303000CDBF00E00CBF14E0A0E0B2E0E2E8F3E1B5
:1030400002E00BBF02C007900D92A633B107D9F77B
:103050002EE1A6E3B4E001C01D92AA33B207E1F766
:1030600018E1C2E1D8E100E006C021970109802FF4
:10307000FE010F94E708C131D10780E00807A9F7E6
:103080000E94DAF50D94B0090C94000020912F0DE8
:103090003091300D2817390771F490912E0D8091E1
:1030A0002D0D981741F0E0912E0DF0E0E351F34F14
:1030B000808190E008958FEF9FEF08950895EF923B
:1030C000FF920F931F93CF93DF93DC015C96ED90FB
:1030D000FC905D97E114F10479F481E090E013969F
:1030E0009C938E93129790E080E0DF91CF911F9197
:1030F0000F91FF90EF9008955196ED91FC915297AA
:1031000050968C915097982F90950FB75E962C9172
:103110005E97122F127021FD6095F8942081112383
:1031200019F1282B2083E7012197F1F728E0462F9A
:1031300050E0308160FF1AC0382B3083E7012197BF
:10314000F1F7BA0175956795215089F7112381F040
:103150008081892380830FBF5C968D919C9101971C
:10316000F1F781E090E0C1CF2923DCCF3923E5CF0F
:103170009081892BEFCF20912F0D3091300D2817A2
:10318000390769F480912D0D20912E0D90E0805C1F
:103190009F4F821B910960E470E00D94D40890E089
:1031A00080E0089520912F0D3091300D28173907B8
:1031B000B9F490912E0D80912D0D981789F0E09122
:1031C0002E0DF0E0E351F34F808120912E0D30E081
:1031D0002F5F3F4F2F73332720932E0D90E00895DC
:1031E0008FEF9FEF089590916F00292F227091FF2C
:1031F00005C090916F009D7F90936F0034E0839F96
:10320000C0011124FC01E35EFB4E408151816281CB
:1032100073818357934FFC0140835183628373838F
:1032200081E080933B05222329F080916F0082602A
:1032300080936F000895BC0120918B0C30918C0C11
:1032400040918B0C50918C0C2417350731F481E0A0
:103250002617370709F080E008959A01F1CFEF9221
:10326000FF920F931F93E0923305F0923405009381
:1032700035051093360560933705709338058093B4
:1032800039059FEFFF27621B730B840B30F4809589
:1032900070956195790B890B99279093460DA6E05F
:1032A0006A9F00923A0D512DEE277A9F500DE11D35
:1032B0008A9FE00D50933B0DE0933C0DAFE06A9F79
:1032C00000923E0D512DEE277A9F500DE11D8A9FF1
:1032D000E00D50933F0DE093400DAAE06A9F0092ED
:1032E000420D512DEE277A9F500DE11D8A9FE00D72
:1032F0005093430DE093440D1F910F91FF90EF9079
:1033000008958091281890912918891B8F7019F4BD
:1033100090E080E0089590912518992351F0833032
:1033200030F48FEF890F19F080932518F1CF1092A8
:1033300025188091291828E6829FC00111248754FE
:103340009A4FFC01208120FDE3CF209129182F5FA7
:103350002F702093261830912918209127183213A6
:1033600004C0209126182093271808959F92AF92A9
:10337000BF92CF92DF92EF92FF920F931F93CF9362
:10338000DF9300D01F921F92CDB7DEB7E5E0FAE0E1
:103390000027BB27462F572FA82FAA2341F4A52F7C
:1033A000542FB85FAA2319F4A52F5527B85FA03171
:1033B00038F45295A295452F4F70507FA42BBC5FD7
:1033C000A03428F4550FAA1F550FAA1FBE5FA038BE
:1033D00018F4550FAA1FB395550FAA1FEA0FF01F37
:1033E000449151E0AA27B85079F1C0F0B0FF02C073
:1033F000440F551FB1FF04C0440F551F440F551F04
:10340000B2FF06C052954295142F1F70407F512B7A
:10341000B3FF1AC0A52F542F442716C0B195B0FF93
:1034200002C055954795B1FF04C0559547955595F0
:103430004795B2FF05C05295407F4295452B5F707E
:10344000B3FF02C0452F5527DD24CC24BB24B2E0B6
:10345000649FD018C108B00AB00B749FC018B1089F
:10346000B00B849FB018B109659FC018B108B00BAC
:10347000759FB018B109859FB0196A9FB018B1093E
:103480007A9FB0194D9DA12C992433279927222783
:103490005D9DA00C911C301F901F201FAD9D900CB6
:1034A000311D901F201F4C9DA00C911C301F901FA0
:1034B000201F5C9D900C311D901F201FAC9D300D76
:1034C000911D201F4B9D900C311D901F201F5B9D57
:1034D000300D911D201FAB9D900D211D4B9F300D78
:1034E000911D201F5B9F900D211DAB9F200DB1E012
:1034F000BB24CC24DD24639FD018C108B00AB00BD4
:10350000739FC018B108B00B839FB018B109699FB1
:10351000C018B108B00B799FB018B109899FB019D4
:10352000629FB018B109729FB019D61AC70AB80ABB
:1035300020F0B1E03B0F901F201F1124792F632F43
:1035400090E0822F0F900F900F900F900F90DF91CF
:10355000CF911F910F91FF90EF90DF90CF90BF9090
:10356000AF909F9008952F923F924F925F926F92EB
:103570007F928F929F92AF92BF92CF92DF92EF9203
:10358000FF920F931F93CF93DF93CDB7DEB7629770
:103590000FB6F894DEBF0FBECDBF588B4F87DC014E
:1035A0008D909D90AD90BC90DB018D919D910D9083
:1035B000BC91A02D89839A83AB83BC8320E030E04B
:1035C00040E251E4C501B4010F94EA052BEA3AEA5E
:1035D0004AEA5CE30F94E7010F942F0764300CF480
:1035E0001FC163E0E62E660FFF0887010F5F1F4FC4
:1035F00020E030E040E251E469817A818B819C8156
:103600000F94EA052BEA3AEA4AEA5CE30F94E701F1
:103610000F942F0764300CF407C163E0262E660F69
:103620003308F701EE0FFF1FEE0FFF1FEE58F74EA6
:10363000408051806280738025E02E9DF0012F9D97
:10364000F00D1124FE83ED83E20DF31DEE0FFF1F3D
:10365000EE0FFF1FE359FB4FC080D180E280F38063
:10366000F801EE0FFF1FEE0FFF1FEE58F74EA301FC
:10367000920160817181828193810F94EA056F8349
:10368000788789879A87A3019201C501B4010F94B5
:10369000EA056B877C878D879E87A5E0A09FC00188
:1036A000A19F900D11249A8B898BFC01E20DF31DD3
:1036B000EE0FFF1FEE0FFF1FE359FB4FA70196010F
:1036C00060817181828193810F94EA052F81388511
:1036D00049855A850F94C7062B853C854D855E85A7
:1036E0000F94E701A70196010F94EB056B017C0194
:1036F00081010F5F1F4FED81FE81E00FF11FEE0F83
:10370000FF1FEE0FFF1FE359FB4F40805180628087
:103710007380F101EE0FFF1FEE0FFF1FE25AF74E0D
:1037200080809180A280B380E989FA89E00FF11F3F
:10373000EE0FFF1FEE0FFF1FE359FB4FA301920196
:1037400060817181828193810F94EA052F81388590
:1037500049855A850F94C7062B853C854D855E8526
:103760000F94E701A30192010F94EB05A7019601C5
:103770000F94EA052B013C01000F111F000F111FD0
:10378000F801E25AF74EA5019401608171818281AE
:1037900093810F94EA059B01AC01C301B2010F9420
:1037A000C7062B013C01A501940169817A818B81B7
:1037B0009C810F94EA059B01AC01C301B2010F94F7
:1037C000E701A70196010F94EB05EF85F8892081A9
:1037D0003181428153810F94E70120916904309136
:1037E0006A0440916B0450916C040F94EB0562964F
:1037F0000FB6F894DEBF0FBECDBFDF91CF911F9102
:103800000F91FF90EF90DF90CF90BF90AF909F907F
:103810008F907F906F905F904F903F902F90089582
:1038200067FFE0CE60E0DECE67FFF8CE60E0F6CE68
:103830008F929F92AF92BF92CF92DF92EF92FF92C0
:10384000CF93DF93EC018090191490901A14A090FC
:103850001B14B0901C1420E030E0A901C501B40194
:103860000F948201882309F454C0C880D980EA806B
:10387000FB80A7019601C501B4010F9482011816BF
:103880000CF04CC02091101430911114409112147E
:1038900050911314C701B6010F948201882331F1AE
:1038A000C0921014D0921114E0921214F0921314DA
:1038B000209114143091151440911614509117143E
:1038C000688179818A819B810F94E7019B01AC011A
:1038D00060E070E080E89FE30F94EA0560931102D6
:1038E000709312028093130290931402609111025C
:1038F000709112028091130290911402DF91CF9186
:10390000FF90EF90DF90CF90BF90AF909F908F90FF
:10391000089560E070E080E89FE3F0CF60E070E041
:10392000CB01ECCFCF93DF9380919A0590919B05CB
:1039300065998AC0816090939B0580939A05209138
:10394000090180919A0590919B0527FD7FC08260B7
:1039500090939B0580939A0580919A0590919B0581
:103960004B9976C0846090939B0580939A05209133
:10397000090180919A0590919B0526FD6BC0986086
:1039800090939B0580939A0580919A0590919B0551
:1039900020919805309199052817390709F45CC0E2
:1039A00022E0209397059093990580939805809144
:1039B000E00F882309F45FC0C0917E0CC0FF0FC0E8
:1039C0008091400C80FF0BC080913B0C80FF07C0B2
:1039D0008091F50F81608093F50F80E004DCC1FFDA
:1039E0000FC08091400C81FF0BC080913B0C81FF88
:1039F00007C08091F50F82608093F50F81E0F3DBC3
:103A0000C2FF39C08091400C82FF35C020913B0C31
:103A100030913C0CC9019695879596958795817054
:103A200092E033FF90E0892B31F19091F50F946093
:103A30009093F50F90913D0C992311F08330D9F4B8
:103A400082E0DF91CF91CFCB8E7F75CF8D7F80CFFE
:103A50008B7F89CF977F94CF80919705882309F436
:103A6000A6CF8150809397058111A1CF30933C0C54
:103A700020933B0C9CCFDF91CF910895CF93DF93A0
:103A8000FC01E65BFF4F2081EC01EE96211103C0A3
:103A9000BE010E94F1D5EB81EF7090E080E0E9304B
:103AA00038F4F0E0EE0FFF1FE754FD4F8081918165
:103AB000DF91CF910895CF93DF93E82FEE0FFF0BA7
:103AC000E45BFA4EC591D491FE018491219688233E
:103AD00019F00E94BE85F8CFDF91CF9108951F9312
:103AE000CF93DF93182FEB01FE0184912196811172
:103AF0000AC0CDEAD7E0FE0184912196882331F0F7
:103B00000E94BE85F8CF0E94BE85EECFC8EAD7E0FE
:103B1000112311F0CEE9D7E0FE018491219688238C
:103B200019F00E94BE85F8CF8AE0DF91CF911F91F6
:103B30000C94BE85CF93DF93C0EAD4E0FE0184915C
:103B40002196882319F00E94BE85F8CFDF91CF918E
:103B50000895CF93DF93C9E9D4E0FE0184912196C3
:103B6000882319F00E94BE85F8CFDF91CF91089588
:103B7000CF93DF938B3D9240A1F0C7E0D0E3FE01ED
:103B80008491219681110AC0CAE6D3E0FE01849196
:103B90002196882351F00E94BE85F8CF0E94BE85F1
:103BA000EECF80E0DF91CF91089581E0FBCF0F93BE
:103BB0001F93CF93DF93CDE2D4E1088119812A814D
:103BC0003B8144E650E060E070E088ED97E10E94C0
:103BD000AFD80C811D812E813F8144E650E060E02A
:103BE00070E08BE897E10E94AFD8088519852A8597
:103BF0003B8544E050E060E070E08EE397E10E9496
:103C0000AFD8088519852A853B8544E050E060E0FF
:103C100070E081EF96E10E94AFD80C851D852E855E
:103C20003F8544E150E060E070E084EA96E10E9464
:103C3000AFD8DF91CF911F910F9108958091CE0F52
:103C4000882341F040E150E063E370E08FEC9FE0B7
:103C50000D944F0508952F923F924F925F926F926D
:103C60007F928F929F92AF92BF92CF92DF92EF920C
:103C7000FF920F931F93CF93DF93CDB7DEB76C976F
:103C80000FB6F894DEBF0FBECDBF8C015B015A8327
:103C90004983FC01EE5AFF4F2081318142815381DB
:103CA000298B3A8B4B8B5C8BCA01B9010F9486012F
:103CB0006B017C01D5012D913D914D915C910F944B
:103CC000E7010F94B1060F9434074B015C01E981C1
:103CD000FA812081318142815381C701B6010F945D
:103CE000E7010F94B1060F94340789869A86AB8654
:103CF000BC8629853A854B855C8528373105410589
:103D0000510540F428E730E040E050E029873A8749
:103D10004B875C876D837E838F8398874D815E811F
:103D20006F817885483751056105710540F468E772
:103D300070E080E090E06D837E838F839887F80148
:103D4000E25AFF4F4080518062807380C301B2010C
:103D50000F94880169837A838B839C8369857A8534
:103D60008B859C850F9486016D8B7E8B8F8B988FB6
:103D700020E030E0A90169817A818B819C810F94D8
:103D80008201882309F4E1C1A7019601C701B601A8
:103D90000F94E7014B015C012D893E894F89588DB5
:103DA000CA01B9010F94E7019B01AC01C501B4013F
:103DB0000F94EA054B015C0129813A814B815C81BA
:103DC000CA01B9010F94EB059B01AC01C501B40117
:103DD0000F94C7060F94B1060F9434076D877E8742
:103DE0008F87988B66277727CB0164197509860919
:103DF00097090F9488014B015C016D817E818F8151
:103E000098850F9486012B013C0120E030E0A90148
:103E1000C501B4010F948201882309F49AC1A3015A
:103E20009201C301B2010F94E701698F7A8F8B8FE2
:103E30009C8FA7019601C701B6010F94E7019B0172
:103E4000AC01698D7A8D8B8D9C8D0F94EA056B0189
:103E50007C01A5019401C501B4010F94EB059B0100
:103E6000AC01C701B6010F94C7060F946007D801D3
:103E700095968D909D90AD90BC909897750164013A
:103E80002D853E854F855889C21AD30AE40AF50A62
:103E90000F943407C61AD70AE80AF90AF7FE8EC04B
:103EA0002D893E894F89588DCA01B9010F94E701C8
:103EB0006B017C0129813A814B815C81CA01B90186
:103EC0000F94EB05698B7A8B8B8B9C8B20E030E019
:103ED000A90169817A818B819C810F948201882359
:103EE00009F43BC1C501B4010F94860129893A89BF
:103EF0004B895C890F94E701A70196010F94EA05AD
:103F00006D877E878F87988BA3019201C301B201D1
:103F10000F94E7019B01AC016D857E858F859889A3
:103F20000F94EB052B013C0120E030E040E850E429
:103F300069817A818B819C810F94E7019B01AC019F
:103F4000C301B2010F94C7060F94B1062B013C01C7
:103F500020E030E0A9010F94110818161CF0412C44
:103F6000512C3201C301B2010F9434076D877E8753
:103F70008F87988B86169706A806B90620F48D863B
:103F80009E86AF86B88A6D857E858F8598890F94C9
:103F9000860129893A894B895C890F94E701A70139
:103FA00096010F94EB050F9456080F943407698B14
:103FB0007A8B8B8B9C8BC12CD12C760169897A8969
:103FC0008B899C8929853A854B855C85621B730B9F
:103FD000840B950B0F94860129813A814B815C817A
:103FE0000F94C70620E034E244EF59E40F94E70150
:103FF0000F9434074B015C0169897A898B899C890C
:104000002D813E814F815885621B730B840B950B6C
:104010000F94860129813A814B815C810F94C706F8
:1040200020E034E244EF59E40F94E7010F943407A1
:104030002B013C013FE683169104A104B10408F072
:1040400090C0F401EE0FFF1FEE0FFF1FE15FF74F6F
:1040500085919591A591B4918983292E3A2EBD8B96
:104060004FE6441651046104710408F082C0F20165
:10407000EE0FFF1FEE0FFF1FE15FF74F45915591C8
:10408000659174919A01CB014D855E856F85788924
:10409000D8019A964D935D936D937C939D974C0DAB
:1040A0005D1D6E1D7F1DF80146A757A760AB71AB64
:1040B000EA5AFF4F49855A856B857C854083518339
:1040C00062837383D6968D929D92AD92BC92D9975E
:1040D000F80142AE53AE64AE75AEFE9649814083A0
:1040E000218232825D895383349620833183828397
:1040F000938369897A898B899C89D2966D937D9304
:104100008D939C93D59778962D813E814F815885CC
:1041100020833183428353836C960FB6F894DEBFBD
:104120000FBECDBFDF91CF911F910F91FF90EF9008
:10413000DF90CF90BF90AF909F908F907F906F90C7
:104140005F904F903F902F90089560E070E0CB011A
:1041500041CE60E070E0CB0188CE60E070E0CB0142
:10416000F3CEC501B40102D96983272E382E9D8B69
:1041700077CFC301B201FAD89B0186CF8F929F926D
:10418000AF92BF92CF92DF92EF92FF920F93CF93B5
:10419000DF931F92CDB7DEB76C017B01490180919F
:1041A00092055B01A40EB51E8823A1F0F601808163
:1041B0009181480F591F518340830F90DF91CF9118
:1041C0000F91FF90EF90DF90CF90BF90AF909F90B6
:1041D0008F900895F601808191810F94470589831E
:1041E00090915C04992311F0002311F0F701808372
:1041F000BE016F5F7F4FC4010E9459D2F6018081DA
:104200009181019691838083FFEFEF1AFF0AEA14F0
:10421000FB0401F7D2CF7F928F929F92AF92BF9211
:10422000CF92DF92EF92FF920F931F93CF93DF9382
:104230001F92CDB7DEB7E0919205E11133C059016D
:104240008C017B016B01C40ED51EEC14FD0489F1B9
:10425000F80180809180F70171907F017982C4011B
:104260000F944705781609F43AC0672DC4010F94DE
:104270007005C4010F9447059981891781F10CE1FC
:1042800010E3F80184910F5F1F4F811121C000E5F9
:1042900013E0F80184910F5F1F4F8823E1F00E9423
:1042A000BE85F7CFFC0120813181420F531F51831E
:1042B00040830F90DF91CF911F910F91FF90EF906E
:1042C000DF90CF90BF90AF909F908F907F90089598
:1042D0000E94BE85D6CF81E080939205EACFBE01D1
:1042E0006F5F7F4FC5010E9459D2F8018081918193
:1042F000019691838083A9CF3FB7F8948091360DC2
:104300009091370DA091380DB091390D26B5A89B2D
:1043100005C02F3F19F00196A11DB11D3FBFBA2F57
:10432000A92F982F8827BC01CD01620F711D811D17
:10433000911D42E0660F771F881F991F4A95D1F79C
:1043400008952FB7F8946091320D7091330D8091DC
:10435000340D9091350D2FBF08951F920F920FB617
:104360000F9211242F933F938F939F93AF93BF93FB
:104370008091320D9091330DA091340DB091350D97
:104380003091310D23E0230F2D3758F50196A11DF3
:10439000B11D2093310D8093320D9093330DA09376
:1043A000340DB093350D8091360D9091370DA0915D
:1043B000380DB091390D0196A11DB11D8093360DB8
:1043C0009093370DA093380DB093390DBF91AF91F5
:1043D0009F918F913F912F910F900FBE0F901F9043
:1043E000189526E8230F0296A11DB11DD2CF1F926A
:1043F0000F920FB60F9211240BB60F922F933F938B
:104400004F935F936F937F938F939F93AF93BF93DC
:10441000EF93FF93E0912F0DF091300D309749F01D
:10442000A685B7858585968D91FF16C09C918923B9
:10443000B1F4FF91EF91BF91AF919F918F917F91D7
:104440006F915F914F913F912F910F900BBE0F9005
:104450000FBE0F901F9018959C91892351F7A38947
:10446000B4899C918589809589238C9386899789C5
:104470000197F1F7608D718DA685B785558538E078
:1044800020E0CB010197F1F7822F90E09595879579
:10449000282F4C91452309F02068315091F7868DE3
:1044A00081FD209580912D0D90E001968F739927C5
:1044B00030912E0D381799F0A0912D0DB0E0A35139
:1044C000B34F2C9380932D0D828D938D0197F1F72F
:1044D000A389B4898C919589892B8C93AACF868DD9
:1044E0008160868FF1CFCF93DF93FC01828D938D16
:1044F000892B41F1A0912F0DB091300DAE17BF0760
:1045000009F1109751F05396CD91DC915497988111
:1045100055968C91809589238883868D8E7F868F92
:1045200010922D0D10922E0DF093300DE0932F0D63
:10453000A389B4898C919589892B8C9381E0DF9133
:10454000CF91089580E0FBCF20914C0230914D0235
:104550002F503109821793070CF49C0130939F165A
:1045600020939E160C94E1CC8F929F92AF92BF92B3
:10457000CF92DF92EF92FF920F931F93CF93DF932F
:10458000B0E2A0E06A2F70E0AB014B0F511D5595D2
:1045900047954A1711F0B41319C0E9EEF1E065919F
:1045A0007491072E000C880B990B0F948801DF91F2
:1045B000CF911F910F91FF90EF90DF90CF90BF9020
:1045C000AF909F908F900895B42FDECF9A01215025
:1045D0003109220F331F220F331FF901E559FE4F16
:1045E000E590F490F901E159FE4FC591D4918E15F3
:1045F0009F0554F3A42FC817D9070CF4C3CFF901B2
:10460000E359FE4F05911491F901EF58FE4FC59003
:10461000D490BC016E197F09072E000C880B990BF2
:104620000F9488014B015C01B601601B710B072ED2
:10463000000C880B990B0F9488019B01AC01C501FC
:10464000B4010F94E7014B015C01BE016E197F09B3
:10465000072E000C880B990B0F9488019B01AC016D
:10466000C501B4010F94C7066B017C01B801110F9D
:10467000880B990B0F9488019B01AC01C701B6010F
:104680000F94EB0594CF0F930FB70F9300916E002B
:104690000B7F00936E0078940F930BB70F930CB7BA
:1046A0000F921F922F933F934F935F936F937F933C
:1046B0008F939F93AF93BF93EF93FF9311240E9427
:1046C000F732FF91EF91BF91AF919F918F917F91C1
:1046D0006F915F914F913F912F911F900F900CBF61
:1046E0000F910BBF0F910460F89400936E000F912F
:1046F0000FBF0F911895CF92DF92EF92FF92C0906B
:104700006A14D0906B14E0906C14F0906D1460916A
:1047100068147091691466507109072E000C880B9B
:10472000990B0F948801A70196010F941108181690
:1047300004F520E030E040E050E4C701B6010F94FA
:10474000EB050F9434077093CE0C6093CD0CF9DD1C
:10475000605A75418F4F9F4F6093C90C7093CA0C7C
:104760008093CB0C9093CC0CFF90EF90DF90CF9088
:1047700008951092C90C1092CA0C1092CB0C109292
:10478000CC0CF2CF8F929F92AF92BF92CF92DF92DA
:10479000EF92FF920F931F93CF93DF93B0E4A0E0CB
:1047A0006A2F70E0AB014B0F511D55954795A4172B
:1047B00011F0B41319C0E5E9F4E165917491072E85
:1047C000000C880B990B0F948801DF91CF911F91FA
:1047D0000F91FF90EF90DF90CF90BF90AF909F90A0
:1047E0008F900895B42FDECF9A0121503109220F06
:1047F000331F220F331FF901E956FC4EE590F49068
:10480000F901E556FC4EC591D4918E159F0554F3E0
:10481000A42FC817D9070CF4C3CFF901E756FC4EF3
:1048200005911491F901E356FC4EC590D490BC015A
:104830006E197F09072E000C880B990B0F948801C5
:104840004B015C01B601601B710B072E000C880B3D
:10485000990B0F9488019B01AC01C501B4010F9421
:10486000E7014B015C01BE016E197F09072E000CA8
:10487000880B990B0F9488019B01AC01C501B40111
:104880000F94C7066B017C01B801110F880B990BBF
:104890000F9488019B01AC01C701B6010F94EB0591
:1048A00094CF8091DB0C9091DC0C5EDE6093A016BF
:1048B0007093A1168093A2169093A3168091D90CA1
:1048C0009091DA0C5FDF60936A1470936B1480939D
:1048D0006C1490936D14A89510925E050895AF9294
:1048E000BF92CF92DF92EF92FF920F931F93CF93DD
:1048F000DF9320E030E048E452E46091A01670912C
:10490000A1168091A2169091A3160F941108C0E0F1
:10491000181644F4EBE2F3E1E491C1E001C0CC0FDE
:10492000EA95EAF7D12CC12CA12CD0E0EE24E39437
:10493000F12CF601EB5DFC4EB490F601E55DFC4E0A
:104940000491B7FC23C08A2D90E0002E02C09595FB
:1049500087950A94E2F780FD19C0BE01002E02C0BF
:10496000759567950A94E2F76170162F1195612F7E
:104970008B2D0E94B4D2612F70E08B2D0E94E9D460
:10498000C70101C0880F0A95EAF7A82A8FEFC81A55
:10499000D80A86E0C816D10461F6DF91CF911F9145
:1049A0000F91FF90EF90DF90CF90BF90AF90089560
:1049B0000F931F9380913C05813011F5C2DC00916B
:1049C0009D0C10919E0C20919F0C3091A00C601BAF
:1049D000710B820B930B28EE33E040E050E00F9414
:1049E0008D056091990C70919A0C80919B0C90911F
:1049F0009C0C620F731F841F951F1F910F910895C8
:104A00006091A10C7091A20C8091A30C9091A40CC8
:104A1000D6CF10923C0510929D0C10929E0C1092D5
:104A20009F0C1092A00C1092A10C1092A20C10924C
:104A3000A30C1092A40C1092990C10929A0C109244
:104A40009B0C10929C0C089580913C05813071F470
:104A500082E080933C0575DC6093A10C7093A20CFE
:104A60008093A30C9093A40C81E0089580E00895B6
:104A70000F930FB70F9300916E000F930B7F00936E
:104A80006E0000916F000D7F00936F000F930BB7C6
:104A90000F930CB70F921F922F933F934F935F93F7
:104AA0006F937F938F939F93AF93BF93EF93FF93F6
:104AB00011244AD0FF91EF91BF91AF919F918F91B7
:104AC0007F916F915F914F913F912F911F900F9028
:104AD0000CBF0F910BBF0F910260F89400936F0011
:104AE0000F9100936E000F910FBF0F911895809159
:104AF000400C80FF1BC089988FEF80932702809124
:104B0000400C81FF16C08F9A8FEF8093280280910E
:104B1000400C82FF11C080910B01809582708093C0
:104B20000901439A8FEF809329020895899A81E0C1
:104B3000E4CF8F9881E0E9CF80910B018270809360
:104B40000901439881E0EFCF2F923F924F925F92FD
:104B50006F927F928F929F92AF92BF92CF92DF928D
:104B6000EF92FF920F931F93CF93DF93CDB7DEB7F2
:104B700067970FB6F894DEBF0FBECDBFF8948FEFE6
:104B80009FEF90938900809388002AE02D83312C39
:104B9000212C78948091870C9091880CA091890C9D
:104BA000B0918A0C892B8A2B8B2B09F018C280912B
:104BB0003B058823E1F080918B0C90918C0C109236
:104BC0003B05892B09F40BC210927E0C10928C0CC1
:104BD00010928B0C9091281880912918981709F43D
:104BE000FEC1809129188F5F8F7080932918809162
:104BF0008B0C90918C0C892B09F4F1C14091830CA2
:104C00005091840C6091850C7091860C80917F0C82
:104C10009091800CA091810CB091820C0091750C48
:104C200010E030E020E0841B950BA60BB70B0817B3
:104C300019072A073B0710F4D901C801E82F840F90
:104C4000951FA61FB71F8093830C9093840CA0938D
:104C5000850CB093860C2091840030918500245EF1
:104C60003F4F80915A0C90915B0CA0915C0CB091DD
:104C70005D0C40914A0C50914B0C60914C0C709122
:104C80004D0C840F951FA61FB71F80935A0C90934D
:104C90005B0CA0935C0CB0935D0CB7FD1CC0889AB4
:104CA00040911D1450911E1460911F147091201496
:104CB00080912702082E000C990BAA0BBB0B840FC6
:104CC000951FA61FB71F80931D1490931E14A093C9
:104CD0001F14B093201480915E0C90915F0CA091F2
:104CE000600CB091610C40914E0C50914F0C609152
:104CF000500C7091510C840F951FA61FB71F809305
:104D00005E0C90935F0CA093600CB093610CB7FDA8
:104D10001CC08E9A4091211450912214609123144A
:104D20007091241480912802082E000C990BAA0B74
:104D3000BB0B840F951FA61FB71F80932114909360
:104D40002214A0932314B09324148091620C9091A8
:104D5000630CA091640CB091650C4091520C509181
:104D6000530C6091540C7091550C840F951FA61F25
:104D7000B71F8093620C9093630CA093640CB09364
:104D8000650CB7FD3DC080913D0CF0912902882350
:104D900009F416C180913B0C82FF02C0F7FD0AC0E6
:104DA00080913A0C811106C080910B01809588702A
:104DB0008093090180913B0C90913C0C93FF02C0C1
:104DC000F7FD05C08091390C811101C0419A4091D5
:104DD00025145091261460912714709128148F2F58
:104DE000FF0F990BAA0BBB0B840F951FA61FB71FB4
:104DF0008093251490932614A0932714B09328141D
:104E00004091660C5091670C6091680C7091690C30
:104E10008091560C9091570CA091580CB091590C60
:104E2000840F951FA61FB71F8093660C9093670C85
:104E3000A093680CB093690CB7FD38C0C0902914DA
:104E4000D0902A14E0902B14F0902C1440912A0258
:104E5000042E000C550B660B770B4C0D5D1D6E1D63
:104E60007F1D4093291450932A1460932B14709340
:104E70002C144091460C5091470C6091480C709155
:104E8000490C841B950BA60BB70B8093660C909373
:104E9000670CA093680CB093690C8091730C90918F
:104EA000400C93FF94C081508093730C80915A0CF6
:104EB00090915B0CA0915C0CB0915D0CB7FD15C09E
:104EC0004091460C5091470C6091480C7091490CF0
:104ED000841B950BA60BB70B80935A0C90935B0C1D
:104EE000A0935C0CB0935D0C889880915E0C9091BF
:104EF0005F0CA091600CB091610CB7FD15C04091A2
:104F0000460C5091470C6091480C7091490C841BE1
:104F1000950BA60BB70B80935E0C90935F0CA09340
:104F2000600CB093610C8E988091620C9091630C30
:104F3000A091640CB091650CB7FD38C04091460C4F
:104F40005091470C6091480C7091490C841B950B53
:104F5000A60BB70B8093620C9093630CA093640C28
:104F6000B093650C80913D0C882399F180913B0CA6
:104F700082FF04C08091290287FD09C080913A0C0C
:104F8000811105C080910B01887080930901809187
:104F90003B0C90913C0C93FF04C08091290287FD4B
:104FA00005C08091390C811101C04198E150B9F0E0
:104FB000809184009091850082179307C8F351CEA9
:104FC00080910B018095887080930901FFCE8F5FDF
:104FD0006BCF80910B01887080930901E6CF80919F
:104FE000340290913502A0913602B0913702892B9C
:104FF0008A2B8B2B09F08AC08091740C882309F4CA
:1050000075C04091730C8090830C9090840CA0909C
:10501000850CB090860CC0906F0CD090700CE09016
:10502000710CF090720CC814D904EA04FB04F0F57A
:1050300080913E0C90913F0C2091430C3091440C98
:105040002817390798F541504093730C01979093B6
:105050003F0C80933E0C40913002509131026091A0
:105060003202709133028091730C87FD43C0169811
:1050700080918400909185004C962091730C22239E
:10508000E9F1149A2091730C27FF36C02F5F20930B
:10509000730C14982091730C222379F320918400CF
:1050A0003091850028173907C8F3E7CF8C149D0489
:1050B000AE04BF0480F480913E0C90913F0C20918F
:1050C000410C3091420C8217930728F44F5F4093B4
:1050D000730C0196BCCF8FEF9FEFDC018093300201
:1050E00090933102A0933202B09333024FEF5FEFFF
:1050F000BA01B9CF169ABCCF2150C9CF4093340220
:105100005093350260933602709337028091870C7A
:105110009091880CA091890CB0918A0C892B8A2BD4
:105120008B2B09F0C1C7A0918B0CB0918C0CBF8B5D
:10513000AE8BAB2B11F40C94F4304090830C509058
:10514000840C6090850C7090860C80917F0C9091FF
:10515000800CA091810CB091820C481659066A0609
:105160007B0608F474C010927E0C10928C0C109286
:105170008B0C9091281880912918981711F40C9491
:10518000F430809129188F5F8F7080932918A0EDDB
:10519000CA2EA7E0DA2EE12CF12C80918B0C909195
:1051A0008C0C892B09F078C70E94811990938C0C84
:1051B00080938B0C892B09F46FC720918B0C309155
:1051C0008C0C3A832983D9018C9183FD01C0C9C518
:1051D000F90185899689A789B08D80931D149093D4
:1051E0001E14A0931F14B0932014818D928DA38D53
:1051F000B48D8093211490932214A0932314B09320
:105200002414858D968DA78DB0A18093251490933D
:105210002614A0932714B093281481A192A1A3A1CE
:10522000B4A18093291490932A14A0932B14B093C3
:105230002C149091281880912918981709F4B4CF4C
:10524000809129188F5F8F7080932918ADCF80913E
:105250007A0C90917B0CA0917C0CB0917D0C841504
:105260009505A605B70508F437C24091760C509114
:10527000770C6091780C7091790CEE89FF8986A982
:1052800097A9A0ADB1AD481759076A077B0708F089
:10529000F9C1411551056105710509F08FC0809074
:1052A000370590903805A0903905B0903A0585E013
:1052B00093E1A1E0FC010591159125913491081528
:1052C00019052A053B0558F4B694A794979487943A
:1052D000AA0F0496E1E2F3E1E817F90759F7A09362
:1052E000750CF0E28F169104A104B10428F4E0E2F9
:1052F0008E2E912CA12CB12C20E2821A9108A108AB
:10530000B108811438E09306A104B10408F4C3C1C4
:10531000A4E09A9EC00111248B5F904FFC0132964D
:1053200025913491B82DEE27B39F8001B29F010DD6
:105330001E1F06940E1F1E1F112430E020E0FC01EA
:10534000C590D490F12CE12CC01AD10AE20AF30ADC
:105350004C0D5D1D6E1D7F1D4093760C5093770C98
:105360006093780C7093790C8091730C9091740C0D
:10537000992309F43BC4882309F40FCF2E893F8970
:10538000285B3F4FD9018D919C91B0E0A0E0409106
:1053900030025091310260913202709133028417D1
:1053A0009507A607B70709F4F8CE109234021092B9
:1053B00035021092360210923702EFCEF12C0E8198
:1053C000942F852E862F1F81B885A985FA85EB85B8
:1053D0003C852D85E0913305E99FA12DFF27309174
:1053E0003405399FA00DF11D10903505199EF00D63
:1053F000E89DA00DF11D389DF00DE89FF00D1A2FCE
:10540000BF2F1A9FE12D332722271F9FE00D311D4B
:105410002F1DBA9FE00D311D2F1DBF9F300D211D87
:10542000132FB22F1A9F012D332722271F9F000D04
:10543000311D2F1DBA9F000D311D2F1DBF9F300D37
:10544000211D132FB22FEE2790913705809038053C
:10545000809139050090460D0F2809F483C03091E2
:10546000420D319FE1199F098F088F092091430D4B
:10547000219FE01991098F088F090091440D019F28
:10548000901981088F093B9FE01991098F088F09B6
:105490002B9F901981088F090B9F801881091A9FF3
:1054A000012D332722271F9F000D311D2F1DBA9F6D
:1054B000000D311D2F1DBF9F300D211D132FB22F49
:1054C00030913E0D319FE10D9F1D8F1C8F1D20914E
:1054D0003F0D219FE00D911D8F1C8F1D0091400DF0
:1054E000019F900D811C8F1D3B9FE00D911D8F1C16
:1054F0008F1D2B9F900D811C8F1D0B9F800C811D7C
:105500001A9F012D332722271F9F000D311D2F1DAC
:10551000BA9F000D311D2F1DBF9F300D211D132F70
:10552000B22F30913A0D319FE1199F098F088F09F1
:1055300020913B0D219FE01991098F088F0900915F
:105540003C0D019F901981088F093B9FE01991093B
:105550008F088F092B9F901981088F090B9F801846
:10556000810982C03091420D319FE10D9F1D8F1C3A
:105570008F1D2091430D219FE00D911D8F1C8F1DCC
:105580000091440D019F900D811C8F1D3B9FE00DEC
:10559000911D8F1C8F1D2B9F900D811C8F1D0B9FAC
:1055A000800C811D1A9F012D332722271F9F000D7C
:1055B000311D2F1DBA9F000D311D2F1DBF9F300DB6
:1055C000211D132FB22F30913E0D319FE1199F09FC
:1055D0008F088F0920913F0D219FE01991098F08B5
:1055E0008F090091400D019F901981088F093B9F01
:1055F000E01991098F088F092B9F901981088F0955
:105600000B9F801881091A9F012D332722271F9F86
:10561000000D311D2F1DBA9F000D311D2F1DBF9F85
:10562000300D211D132FB22F30913A0D319FE10D16
:105630009F1D8F1C8F1D20913B0D219FE00D911D03
:105640008F1C8F1D00913C0D019F900D811C8F1DA3
:105650003B9FE00D911D8F1C8F1D2B9F900D811C7A
:105660008F1D0B9F800C811D11240E831F83B88713
:10567000A987FA87EB873C872D87982C892EB12C38
:10568000A82E15CEAE89BF89D2968D909D90AD90F3
:10569000BC90D5970CCED501C401B695A79597952A
:1056A00087958C7F8B5F944FFC01C590D490FC0153
:1056B000329625913491E82DE770E29FC001E39F77
:1056C000900D112433E0969587953A95E1F7C81A25
:1056D000D90AF12CE12C3CCE20916F0C3091700C4A
:1056E0004091710C5091720C29833A834B835C83F7
:1056F000241535054605570508F07CC280906A0CD4
:1057000090906B0CA0906C0CB0906D0C80916E0C16
:10571000EE89FF898111C2C0EE5BFF4FE080F1800E
:1057200002811381EE89FF89E65AFF4F2081318182
:1057300042815381AE89BF89D2966D917D918D91C1
:105740009C91D5970E942F19B1E0B0936E0CEE8911
:10575000FF8982A993A9A4A9B5A925E033E111E0A5
:10576000F9014591559165917491481759076A0758
:105770007B0760F4B695A79597958795110F2C5FD9
:105780003F4F41E253E14217530751F71093750C15
:1057900080329105A105B10520F480E290E0A0E0FF
:1057A000B0E08097A109B109811558E09507A105DE
:1057B000B10508F4F8C174E0979F900111242B5FA4
:1057C000304FF901329645915491EE27859FB001F3
:1057D000849F610D7E1F06946E1F7E1F1124CB01D6
:1057E000B0E0A0E0F901C590D490F12CE12CC81AEA
:1057F000D90AEA0AFB0A8C0C9D1CAE1CBF1C8092C5
:105800006A0C90926B0CA0926C0CB0926D0C809113
:10581000740C882309F4E8C189819A81AB81BC8129
:10582000810F911DA11DB11D84159505A605B70514
:10583000D8F48091730C882309F4AFCCEE89FF89EA
:10584000E85BFF4F80819181B0E0A0E040913002A1
:1058500050913102609132027091330284179507A2
:10586000A607B70709F499CC1092340210923502BA
:1058700010923602109237028E899F89885B9F4F63
:10588000DC018D919C91B0E0A0E080933002909378
:105890003102A0933202B09333027FCC82AD93AD3C
:1058A000A4ADB5AD88169906AA06BB0608F072C16C
:1058B00081149104A104B10449F4809137059091B9
:1058C0003805A0913905B0913A0547CFB0E0AE85D3
:1058D000282D892D1A2DFF85E88979896A895B89A8
:1058E0004C893D8950913305529F712D6627409117
:1058F0003405429F700D611D10903505129E600D9C
:10590000589F700D611D489F600D519F600DF72FCE
:10591000E62FF79F512D44273327F69F500D411D49
:105920003B1FE79F500D411D3B1FE69F400D311D62
:10593000F42FE32FF79FA12D44273327F69FA00DC7
:10594000411D3B1FE79FA00D411D3B1FE69F400DE2
:10595000311DF42FE32F552720913705809138050D
:10596000109139050090460D0B2A09F483C040912F
:10597000420D4F9F51192B0B8B0B1B0B3091430D7D
:105980003F9F501921098B0B1B0BA091440DAF9F1A
:10599000201981091B0B4E9F501921098B0B1B0BE2
:1059A0003E9F201981091B0BAE9F80191109F79F9B
:1059B000A12D44273327F69FA00D411D3B1FE79FD4
:1059C000A00D411D3B1FE69F400D311DF42FE32F1D
:1059D00040913E0D4F9F510D2B1F8B1F1B1F309170
:1059E0003F0D3F9F500D211D8B1F1B1FA091400D90
:1059F000AF9F200D811D1B1F4E9F500D211D8B1F22
:105A00001B1F3E9F200D811D1B1FAE9F800D111D72
:105A1000F79FA12D44273327F69FA00D411D3B1F63
:105A2000E79FA00D411D3B1FE69F400D311DF42F48
:105A3000E32F40913A0D4F9F51192B0B8B0B1B0BF2
:105A400030913B0D3F9F501921098B0B1B0BA091EF
:105A50003C0DAF9F201981091B0B4E9F5019210946
:105A60008B0B1B0B3E9F201981091B0BAE9F8019CE
:105A7000110982C04091420D4F9F510D2B1F8B1F6A
:105A80001B1F3091430D3F9F500D211D8B1F1B1F6E
:105A9000A091440DAF9F200D811D1B1F4E9F500DE7
:105AA000211D8B1F1B1F3E9F200D811D1B1FAE9FA5
:105AB000800D111DF79FA12D44273327F69FA00DC0
:105AC000411D3B1FE79FA00D411D3B1FE69F400D61
:105AD000311DF42FE32F40913E0D4F9F51192B0B99
